{
  "_format": "hh-sol-artifact-1",
  "contractName": "DegenGamingToken",
  "sourceName": "contracts/DegenToken.sol",
  "abi": [
    {
      "inputs": [],
      "stateMutability": "nonpayable",
      "type": "constructor"
    },
    {
      "inputs": [],
      "name": "IncorrectbetEntryPrice",
      "type": "error"
    },
    {
      "inputs": [],
      "name": "NoParticipants",
      "type": "error"
    },
    {
      "anonymous": false,
      "inputs": [
        {
          "indexed": true,
          "internalType": "address",
          "name": "owner",
          "type": "address"
        },
        {
          "indexed": true,
          "internalType": "address",
          "name": "spender",
          "type": "address"
        },
        {
          "indexed": false,
          "internalType": "uint256",
          "name": "value",
          "type": "uint256"
        }
      ],
      "name": "Approval",
      "type": "event"
    },
    {
      "anonymous": false,
      "inputs": [
        {
          "indexed": true,
          "internalType": "address",
          "name": "from",
          "type": "address"
        },
        {
          "indexed": true,
          "internalType": "address",
          "name": "to",
          "type": "address"
        },
        {
          "indexed": false,
          "internalType": "uint256",
          "name": "value",
          "type": "uint256"
        }
      ],
      "name": "Transfer",
      "type": "event"
    },
    {
      "inputs": [
        {
          "internalType": "uint256",
          "name": "",
          "type": "uint256"
        }
      ],
      "name": "ListOfPlayers",
      "outputs": [
        {
          "internalType": "address",
          "name": "",
          "type": "address"
        }
      ],
      "stateMutability": "view",
      "type": "function"
    },
    {
      "inputs": [
        {
          "internalType": "string",
          "name": "_name",
          "type": "string"
        },
        {
          "internalType": "uint256",
          "name": "_price",
          "type": "uint256"
        }
      ],
      "name": "addToStore",
      "outputs": [],
      "stateMutability": "nonpayable",
      "type": "function"
    },
    {
      "inputs": [
        {
          "internalType": "address",
          "name": "owner",
          "type": "address"
        },
        {
          "internalType": "address",
          "name": "spender",
          "type": "address"
        }
      ],
      "name": "allowance",
      "outputs": [
        {
          "internalType": "uint256",
          "name": "",
          "type": "uint256"
        }
      ],
      "stateMutability": "view",
      "type": "function"
    },
    {
      "inputs": [
        {
          "internalType": "address",
          "name": "spender",
          "type": "address"
        },
        {
          "internalType": "uint256",
          "name": "amount",
          "type": "uint256"
        }
      ],
      "name": "approve",
      "outputs": [
        {
          "internalType": "bool",
          "name": "",
          "type": "bool"
        }
      ],
      "stateMutability": "nonpayable",
      "type": "function"
    },
    {
      "inputs": [
        {
          "internalType": "address",
          "name": "account",
          "type": "address"
        }
      ],
      "name": "balanceOf",
      "outputs": [
        {
          "internalType": "uint256",
          "name": "",
          "type": "uint256"
        }
      ],
      "stateMutability": "view",
      "type": "function"
    },
    {
      "inputs": [],
      "name": "bet",
      "outputs": [],
      "stateMutability": "payable",
      "type": "function"
    },
    {
      "inputs": [],
      "name": "betEntryPrice",
      "outputs": [
        {
          "internalType": "uint256",
          "name": "",
          "type": "uint256"
        }
      ],
      "stateMutability": "view",
      "type": "function"
    },
    {
      "inputs": [],
      "name": "betNum",
      "outputs": [
        {
          "internalType": "uint256",
          "name": "",
          "type": "uint256"
        }
      ],
      "stateMutability": "view",
      "type": "function"
    },
    {
      "inputs": [],
      "name": "betPrice",
      "outputs": [
        {
          "internalType": "uint256",
          "name": "",
          "type": "uint256"
        }
      ],
      "stateMutability": "view",
      "type": "function"
    },
    {
      "inputs": [],
      "name": "betWinner",
      "outputs": [],
      "stateMutability": "nonpayable",
      "type": "function"
    },
    {
      "inputs": [
        {
          "internalType": "uint256",
          "name": "value",
          "type": "uint256"
        }
      ],
      "name": "burn",
      "outputs": [],
      "stateMutability": "nonpayable",
      "type": "function"
    },
    {
      "inputs": [],
      "name": "decimals",
      "outputs": [
        {
          "internalType": "uint8",
          "name": "",
          "type": "uint8"
        }
      ],
      "stateMutability": "view",
      "type": "function"
    },
    {
      "inputs": [
        {
          "internalType": "address",
          "name": "spender",
          "type": "address"
        },
        {
          "internalType": "uint256",
          "name": "subtractedValue",
          "type": "uint256"
        }
      ],
      "name": "decreaseAllowance",
      "outputs": [
        {
          "internalType": "bool",
          "name": "",
          "type": "bool"
        }
      ],
      "stateMutability": "nonpayable",
      "type": "function"
    },
    {
      "inputs": [
        {
          "internalType": "address",
          "name": "spender",
          "type": "address"
        },
        {
          "internalType": "uint256",
          "name": "addedValue",
          "type": "uint256"
        }
      ],
      "name": "increaseAllowance",
      "outputs": [
        {
          "internalType": "bool",
          "name": "",
          "type": "bool"
        }
      ],
      "stateMutability": "nonpayable",
      "type": "function"
    },
    {
      "inputs": [],
      "name": "mint",
      "outputs": [],
      "stateMutability": "nonpayable",
      "type": "function"
    },
    {
      "inputs": [],
      "name": "name",
      "outputs": [
        {
          "internalType": "string",
          "name": "",
          "type": "string"
        }
      ],
      "stateMutability": "view",
      "type": "function"
    },
    {
      "inputs": [],
      "name": "owner",
      "outputs": [
        {
          "internalType": "address",
          "name": "",
          "type": "address"
        }
      ],
      "stateMutability": "view",
      "type": "function"
    },
    {
      "inputs": [
        {
          "internalType": "uint8",
          "name": "_id",
          "type": "uint8"
        }
      ],
      "name": "redeem",
      "outputs": [],
      "stateMutability": "nonpayable",
      "type": "function"
    },
    {
      "inputs": [],
      "name": "starterMint",
      "outputs": [
        {
          "internalType": "uint256",
          "name": "",
          "type": "uint256"
        }
      ],
      "stateMutability": "view",
      "type": "function"
    },
    {
      "inputs": [
        {
          "internalType": "uint256",
          "name": "",
          "type": "uint256"
        }
      ],
      "name": "storeItems",
      "outputs": [
        {
          "internalType": "uint256",
          "name": "id",
          "type": "uint256"
        },
        {
          "internalType": "address",
          "name": "itemOwner",
          "type": "address"
        },
        {
          "internalType": "string",
          "name": "name",
          "type": "string"
        },
        {
          "internalType": "uint256",
          "name": "price",
          "type": "uint256"
        }
      ],
      "stateMutability": "view",
      "type": "function"
    },
    {
      "inputs": [],
      "name": "symbol",
      "outputs": [
        {
          "internalType": "string",
          "name": "",
          "type": "string"
        }
      ],
      "stateMutability": "view",
      "type": "function"
    },
    {
      "inputs": [],
      "name": "totalSupply",
      "outputs": [
        {
          "internalType": "uint256",
          "name": "",
          "type": "uint256"
        }
      ],
      "stateMutability": "view",
      "type": "function"
    },
    {
      "inputs": [
        {
          "internalType": "address",
          "name": "to",
          "type": "address"
        },
        {
          "internalType": "uint256",
          "name": "amount",
          "type": "uint256"
        }
      ],
      "name": "transfer",
      "outputs": [
        {
          "internalType": "bool",
          "name": "",
          "type": "bool"
        }
      ],
      "stateMutability": "nonpayable",
      "type": "function"
    },
    {
      "inputs": [
        {
          "internalType": "address",
          "name": "from",
          "type": "address"
        },
        {
          "internalType": "address",
          "name": "to",
          "type": "address"
        },
        {
          "internalType": "uint256",
          "name": "amount",
          "type": "uint256"
        }
      ],
      "name": "transferFrom",
      "outputs": [
        {
          "internalType": "bool",
          "name": "",
          "type": "bool"
        }
      ],
      "stateMutability": "nonpayable",
      "type": "function"
    }
  ],
  "bytecode": "0x6080604052670de0b6b3a7640000600a55670de0b6b3a7640000600b556729a2241af62c0000600c553480156200003557600080fd5b506040518060400160405280601081526020017f446567656e47616d696e67546f6b656e000000000000000000000000000000008152506040518060400160405280600381526020017f44475400000000000000000000000000000000000000000000000000000000008152508160039081620000b3919062000389565b508060049081620000c5919062000389565b50505033600560006101000a81548173ffffffffffffffffffffffffffffffffffffffff021916908373ffffffffffffffffffffffffffffffffffffffff16021790555062000470565b600081519050919050565b7f4e487b7100000000000000000000000000000000000000000000000000000000600052604160045260246000fd5b7f4e487b7100000000000000000000000000000000000000000000000000000000600052602260045260246000fd5b600060028204905060018216806200019157607f821691505b602082108103620001a757620001a662000149565b5b50919050565b60008190508160005260206000209050919050565b60006020601f8301049050919050565b600082821b905092915050565b600060088302620002117fffffffffffffffffffffffffffffffffffffffffffffffffffffffffffffffff82620001d2565b6200021d8683620001d2565b95508019841693508086168417925050509392505050565b6000819050919050565b6000819050919050565b60006200026a620002646200025e8462000235565b6200023f565b62000235565b9050919050565b6000819050919050565b620002868362000249565b6200029e620002958262000271565b848454620001df565b825550505050565b600090565b620002b5620002a6565b620002c28184846200027b565b505050565b5b81811015620002ea57620002de600082620002ab565b600181019050620002c8565b5050565b601f82111562000339576200030381620001ad565b6200030e84620001c2565b810160208510156200031e578190505b620003366200032d85620001c2565b830182620002c7565b50505b505050565b600082821c905092915050565b60006200035e600019846008026200033e565b1980831691505092915050565b60006200037983836200034b565b9150826002028217905092915050565b62000394826200010f565b67ffffffffffffffff811115620003b057620003af6200011a565b5b620003bc825462000178565b620003c9828285620002ee565b600060209050601f831160018114620004015760008415620003ec578287015190505b620003f885826200036b565b86555062000468565b601f1984166200041186620001ad565b60005b828110156200043b5784890151825560018201915060208501945060208101905062000414565b868310156200045b578489015162000457601f8916826200034b565b8355505b6001600288020188555050505b505050505050565b6128c180620004806000396000f3fe60806040526004361061014b5760003560e01c806343f2cdb2116100b6578063a457c2d71161006f578063a457c2d714610476578063a9059cbb146104b3578063ad9d9243146104f0578063cfd8a1751461051b578063d27476bc14610546578063dd62ed3e146105715761014b565b806343f2cdb2146103615780634d1db3e9146103a157806370a08231146103cc5780638da5cb5b1461040957806395d89b41146104345780639abcc04e1461045f5761014b565b806323b872dd1161010857806323b872dd1461022d578063242d29481461026a578063313ce567146102a757806332271faf146102d257806339509351146102fb57806342966c68146103385761014b565b806306fdde0314610150578063095ea7b31461017b5780630cdb4436146101b857806311610c25146101e15780631249c58b146101eb57806318160ddd14610202575b600080fd5b34801561015c57600080fd5b506101656105ae565b6040516101729190611802565b60405180910390f35b34801561018757600080fd5b506101a2600480360381019061019d91906118cc565b610640565b6040516101af9190611927565b60405180910390f35b3480156101c457600080fd5b506101df60048036038101906101da9190611a77565b610663565b005b6101e9610792565b005b3480156101f757600080fd5b50610200610832565b005b34801561020e57600080fd5b506102176108d6565b6040516102249190611ae2565b60405180910390f35b34801561023957600080fd5b50610254600480360381019061024f9190611afd565b6108e0565b6040516102619190611927565b60405180910390f35b34801561027657600080fd5b50610291600480360381019061028c9190611b50565b61090f565b60405161029e9190611b8c565b60405180910390f35b3480156102b357600080fd5b506102bc61094e565b6040516102c99190611bc3565b60405180910390f35b3480156102de57600080fd5b506102f960048036038101906102f49190611c0a565b610957565b005b34801561030757600080fd5b50610322600480360381019061031d91906118cc565b610a58565b60405161032f9190611927565b60405180910390f35b34801561034457600080fd5b5061035f600480360381019061035a9190611b50565b610a8f565b005b34801561036d57600080fd5b5061038860048036038101906103839190611b50565b610ae7565b6040516103989493929190611c37565b60405180910390f35b3480156103ad57600080fd5b506103b6610bbf565b6040516103c39190611ae2565b60405180910390f35b3480156103d857600080fd5b506103f360048036038101906103ee9190611c83565b610bc5565b6040516104009190611ae2565b60405180910390f35b34801561041557600080fd5b5061041e610c0d565b60405161042b9190611b8c565b60405180910390f35b34801561044057600080fd5b50610449610c33565b6040516104569190611802565b60405180910390f35b34801561046b57600080fd5b50610474610cc5565b005b34801561048257600080fd5b5061049d600480360381019061049891906118cc565b610e3f565b6040516104aa9190611927565b60405180910390f35b3480156104bf57600080fd5b506104da60048036038101906104d591906118cc565b610eb6565b6040516104e79190611927565b60405180910390f35b3480156104fc57600080fd5b50610505610ed9565b6040516105129190611ae2565b60405180910390f35b34801561052757600080fd5b50610530610edf565b60405161053d9190611ae2565b60405180910390f35b34801561055257600080fd5b5061055b610ee5565b6040516105689190611ae2565b60405180910390f35b34801561057d57600080fd5b5061059860048036038101906105939190611cb0565b610eeb565b6040516105a59190611ae2565b60405180910390f35b6060600380546105bd90611d1f565b80601f01602080910402602001604051908101604052809291908181526020018280546105e990611d1f565b80156106365780601f1061060b57610100808354040283529160200191610636565b820191906000526020600020905b81548152906001019060200180831161061957829003601f168201915b5050505050905090565b60008061064b610f72565b9050610658818585610f7a565b600191505092915050565b600560009054906101000a900473ffffffffffffffffffffffffffffffffffffffff1673ffffffffffffffffffffffffffffffffffffffff163373ffffffffffffffffffffffffffffffffffffffff16146106f3576040517f08c379a00000000000000000000000000000000000000000000000000000000081526004016106ea90611d9c565b60405180910390fd5b6006600081548092919061070690611deb565b9190505550600060086000600654815260200190815260200160002090506006548160000181905550338160010160006101000a81548173ffffffffffffffffffffffffffffffffffffffff021916908373ffffffffffffffffffffffffffffffffffffffff160217905550828160020190816107839190611fdf565b50818160030181905550505050565b600a5434146107cd576040517fd82d459a00000000000000000000000000000000000000000000000000000000815260040160405180910390fd5b6007339080600181540180825580915050600190039060005260206000200160009091909190916101000a81548173ffffffffffffffffffffffffffffffffffffffff021916908373ffffffffffffffffffffffffffffffffffffffff160217905550565b600560009054906101000a900473ffffffffffffffffffffffffffffffffffffffff1673ffffffffffffffffffffffffffffffffffffffff163373ffffffffffffffffffffffffffffffffffffffff16146108c2576040517f08c379a00000000000000000000000000000000000000000000000000000000081526004016108b990611d9c565b60405180910390fd5b6108d433670de0b6b3a7640000611143565b565b6000600254905090565b6000806108eb610f72565b90506108f8858285611299565b610903858585611325565b60019150509392505050565b6007818154811061091f57600080fd5b906000526020600020016000915054906101000a900473ffffffffffffffffffffffffffffffffffffffff1681565b60006012905090565b6006548160ff16111561099f576040517f08c379a0000000000000000000000000000000000000000000000000000000008152600401610996906120fd565b60405180910390fd5b6109fc33600860008460ff16815260200190815260200160002060010160009054906101000a900473ffffffffffffffffffffffffffffffffffffffff16600860008560ff168152602001908152602001600020600301546108e0565b5033600860008360ff16815260200190815260200160002060010160006101000a81548173ffffffffffffffffffffffffffffffffffffffff021916908373ffffffffffffffffffffffffffffffffffffffff16021790555050565b600080610a63610f72565b9050610a84818585610a758589610eeb565b610a7f919061211d565b610f7a565b600191505092915050565b80610a9933610bc5565b1015610ada576040517f08c379a0000000000000000000000000000000000000000000000000000000008152600401610ad19061219d565b60405180910390fd5b610ae4338261159b565b50565b60086020528060005260406000206000915090508060000154908060010160009054906101000a900473ffffffffffffffffffffffffffffffffffffffff1690806002018054610b3690611d1f565b80601f0160208091040260200160405190810160405280929190818152602001828054610b6290611d1f565b8015610baf5780601f10610b8457610100808354040283529160200191610baf565b820191906000526020600020905b815481529060010190602001808311610b9257829003601f168201915b5050505050908060030154905084565b60095481565b60008060008373ffffffffffffffffffffffffffffffffffffffff1673ffffffffffffffffffffffffffffffffffffffff168152602001908152602001600020549050919050565b600560009054906101000a900473ffffffffffffffffffffffffffffffffffffffff1681565b606060048054610c4290611d1f565b80601f0160208091040260200160405190810160405280929190818152602001828054610c6e90611d1f565b8015610cbb5780601f10610c9057610100808354040283529160200191610cbb565b820191906000526020600020905b815481529060010190602001808311610c9e57829003601f168201915b5050505050905090565b600560009054906101000a900473ffffffffffffffffffffffffffffffffffffffff1673ffffffffffffffffffffffffffffffffffffffff163373ffffffffffffffffffffffffffffffffffffffff1614610d55576040517f08c379a0000000000000000000000000000000000000000000000000000000008152600401610d4c90611d9c565b60405180910390fd5b60016007805490501015610d95576040517f8b6a473000000000000000000000000000000000000000000000000000000000815260040160405180910390fd5b60004233604051602001610daa929190612226565b6040516020818303038152906040528051906020012060001c9050600060078054905082610dd89190612281565b9050600060078281548110610df057610def6122b2565b5b9060005260206000200160009054906101000a900473ffffffffffffffffffffffffffffffffffffffff169050610e3981600780549050600b54610e3491906122e1565b610eb6565b50505050565b600080610e4a610f72565b90506000610e588286610eeb565b905083811015610e9d576040517f08c379a0000000000000000000000000000000000000000000000000000000008152600401610e9490612395565b60405180910390fd5b610eaa8286868403610f7a565b60019250505092915050565b600080610ec1610f72565b9050610ece818585611325565b600191505092915050565b600c5481565b600b5481565b600a5481565b6000600160008473ffffffffffffffffffffffffffffffffffffffff1673ffffffffffffffffffffffffffffffffffffffff16815260200190815260200160002060008373ffffffffffffffffffffffffffffffffffffffff1673ffffffffffffffffffffffffffffffffffffffff16815260200190815260200160002054905092915050565b600033905090565b600073ffffffffffffffffffffffffffffffffffffffff168373ffffffffffffffffffffffffffffffffffffffff1603610fe9576040517f08c379a0000000000000000000000000000000000000000000000000000000008152600401610fe090612427565b60405180910390fd5b600073ffffffffffffffffffffffffffffffffffffffff168273ffffffffffffffffffffffffffffffffffffffff1603611058576040517f08c379a000000000000000000000000000000000000000000000000000000000815260040161104f906124b9565b60405180910390fd5b80600160008573ffffffffffffffffffffffffffffffffffffffff1673ffffffffffffffffffffffffffffffffffffffff16815260200190815260200160002060008473ffffffffffffffffffffffffffffffffffffffff1673ffffffffffffffffffffffffffffffffffffffff168152602001908152602001600020819055508173ffffffffffffffffffffffffffffffffffffffff168373ffffffffffffffffffffffffffffffffffffffff167f8c5be1e5ebec7d5bd14f71427d1e84f3dd0314c0f7b2291e5b200ac8c7c3b925836040516111369190611ae2565b60405180910390a3505050565b600073ffffffffffffffffffffffffffffffffffffffff168273ffffffffffffffffffffffffffffffffffffffff16036111b2576040517f08c379a00000000000000000000000000000000000000000000000000000000081526004016111a990612525565b60405180910390fd5b6111be60008383611768565b80600260008282546111d0919061211d565b92505081905550806000808473ffffffffffffffffffffffffffffffffffffffff1673ffffffffffffffffffffffffffffffffffffffff168152602001908152602001600020600082825401925050819055508173ffffffffffffffffffffffffffffffffffffffff16600073ffffffffffffffffffffffffffffffffffffffff167fddf252ad1be2c89b69c2b068fc378daa952ba7f163c4a11628f55a4df523b3ef836040516112819190611ae2565b60405180910390a36112956000838361176d565b5050565b60006112a58484610eeb565b90507fffffffffffffffffffffffffffffffffffffffffffffffffffffffffffffffff811461131f5781811015611311576040517f08c379a000000000000000000000000000000000000000000000000000000000815260040161130890612591565b60405180910390fd5b61131e8484848403610f7a565b5b50505050565b600073ffffffffffffffffffffffffffffffffffffffff168373ffffffffffffffffffffffffffffffffffffffff1603611394576040517f08c379a000000000000000000000000000000000000000000000000000000000815260040161138b90612623565b60405180910390fd5b600073ffffffffffffffffffffffffffffffffffffffff168273ffffffffffffffffffffffffffffffffffffffff1603611403576040517f08c379a00000000000000000000000000000000000000000000000000000000081526004016113fa906126b5565b60405180910390fd5b61140e838383611768565b60008060008573ffffffffffffffffffffffffffffffffffffffff1673ffffffffffffffffffffffffffffffffffffffff16815260200190815260200160002054905081811015611494576040517f08c379a000000000000000000000000000000000000000000000000000000000815260040161148b90612747565b60405180910390fd5b8181036000808673ffffffffffffffffffffffffffffffffffffffff1673ffffffffffffffffffffffffffffffffffffffff16815260200190815260200160002081905550816000808573ffffffffffffffffffffffffffffffffffffffff1673ffffffffffffffffffffffffffffffffffffffff168152602001908152602001600020600082825401925050819055508273ffffffffffffffffffffffffffffffffffffffff168473ffffffffffffffffffffffffffffffffffffffff167fddf252ad1be2c89b69c2b068fc378daa952ba7f163c4a11628f55a4df523b3ef846040516115829190611ae2565b60405180910390a361159584848461176d565b50505050565b600073ffffffffffffffffffffffffffffffffffffffff168273ffffffffffffffffffffffffffffffffffffffff160361160a576040517f08c379a0000000000000000000000000000000000000000000000000000000008152600401611601906127d9565b60405180910390fd5b61161682600083611768565b60008060008473ffffffffffffffffffffffffffffffffffffffff1673ffffffffffffffffffffffffffffffffffffffff1681526020019081526020016000205490508181101561169c576040517f08c379a00000000000000000000000000000000000000000000000000000000081526004016116939061286b565b60405180910390fd5b8181036000808573ffffffffffffffffffffffffffffffffffffffff1673ffffffffffffffffffffffffffffffffffffffff1681526020019081526020016000208190555081600260008282540392505081905550600073ffffffffffffffffffffffffffffffffffffffff168373ffffffffffffffffffffffffffffffffffffffff167fddf252ad1be2c89b69c2b068fc378daa952ba7f163c4a11628f55a4df523b3ef8460405161174f9190611ae2565b60405180910390a36117638360008461176d565b505050565b505050565b505050565b600081519050919050565b600082825260208201905092915050565b60005b838110156117ac578082015181840152602081019050611791565b60008484015250505050565b6000601f19601f8301169050919050565b60006117d482611772565b6117de818561177d565b93506117ee81856020860161178e565b6117f7816117b8565b840191505092915050565b6000602082019050818103600083015261181c81846117c9565b905092915050565b6000604051905090565b600080fd5b600080fd5b600073ffffffffffffffffffffffffffffffffffffffff82169050919050565b600061186382611838565b9050919050565b61187381611858565b811461187e57600080fd5b50565b6000813590506118908161186a565b92915050565b6000819050919050565b6118a981611896565b81146118b457600080fd5b50565b6000813590506118c6816118a0565b92915050565b600080604083850312156118e3576118e261182e565b5b60006118f185828601611881565b9250506020611902858286016118b7565b9150509250929050565b60008115159050919050565b6119218161190c565b82525050565b600060208201905061193c6000830184611918565b92915050565b600080fd5b600080fd5b7f4e487b7100000000000000000000000000000000000000000000000000000000600052604160045260246000fd5b611984826117b8565b810181811067ffffffffffffffff821117156119a3576119a261194c565b5b80604052505050565b60006119b6611824565b90506119c2828261197b565b919050565b600067ffffffffffffffff8211156119e2576119e161194c565b5b6119eb826117b8565b9050602081019050919050565b82818337600083830152505050565b6000611a1a611a15846119c7565b6119ac565b905082815260208101848484011115611a3657611a35611947565b5b611a418482856119f8565b509392505050565b600082601f830112611a5e57611a5d611942565b5b8135611a6e848260208601611a07565b91505092915050565b60008060408385031215611a8e57611a8d61182e565b5b600083013567ffffffffffffffff811115611aac57611aab611833565b5b611ab885828601611a49565b9250506020611ac9858286016118b7565b9150509250929050565b611adc81611896565b82525050565b6000602082019050611af76000830184611ad3565b92915050565b600080600060608486031215611b1657611b1561182e565b5b6000611b2486828701611881565b9350506020611b3586828701611881565b9250506040611b46868287016118b7565b9150509250925092565b600060208284031215611b6657611b6561182e565b5b6000611b74848285016118b7565b91505092915050565b611b8681611858565b82525050565b6000602082019050611ba16000830184611b7d565b92915050565b600060ff82169050919050565b611bbd81611ba7565b82525050565b6000602082019050611bd86000830184611bb4565b92915050565b611be781611ba7565b8114611bf257600080fd5b50565b600081359050611c0481611bde565b92915050565b600060208284031215611c2057611c1f61182e565b5b6000611c2e84828501611bf5565b91505092915050565b6000608082019050611c4c6000830187611ad3565b611c596020830186611b7d565b8181036040830152611c6b81856117c9565b9050611c7a6060830184611ad3565b95945050505050565b600060208284031215611c9957611c9861182e565b5b6000611ca784828501611881565b91505092915050565b60008060408385031215611cc757611cc661182e565b5b6000611cd585828601611881565b9250506020611ce685828601611881565b9150509250929050565b7f4e487b7100000000000000000000000000000000000000000000000000000000600052602260045260246000fd5b60006002820490506001821680611d3757607f821691505b602082108103611d4a57611d49611cf0565b5b50919050565b7f596f7520617265206e6f7420746865206f776e65720000000000000000000000600082015250565b6000611d8660158361177d565b9150611d9182611d50565b602082019050919050565b60006020820190508181036000830152611db581611d79565b9050919050565b7f4e487b7100000000000000000000000000000000000000000000000000000000600052601160045260246000fd5b6000611df682611896565b91507fffffffffffffffffffffffffffffffffffffffffffffffffffffffffffffffff8203611e2857611e27611dbc565b5b600182019050919050565b60008190508160005260206000209050919050565b60006020601f8301049050919050565b600082821b905092915050565b600060088302611e957fffffffffffffffffffffffffffffffffffffffffffffffffffffffffffffffff82611e58565b611e9f8683611e58565b95508019841693508086168417925050509392505050565b6000819050919050565b6000611edc611ed7611ed284611896565b611eb7565b611896565b9050919050565b6000819050919050565b611ef683611ec1565b611f0a611f0282611ee3565b848454611e65565b825550505050565b600090565b611f1f611f12565b611f2a818484611eed565b505050565b5b81811015611f4e57611f43600082611f17565b600181019050611f30565b5050565b601f821115611f9357611f6481611e33565b611f6d84611e48565b81016020851015611f7c578190505b611f90611f8885611e48565b830182611f2f565b50505b505050565b600082821c905092915050565b6000611fb660001984600802611f98565b1980831691505092915050565b6000611fcf8383611fa5565b9150826002028217905092915050565b611fe882611772565b67ffffffffffffffff8111156120015761200061194c565b5b61200b8254611d1f565b612016828285611f52565b600060209050601f8311600181146120495760008415612037578287015190505b6120418582611fc3565b8655506120a9565b601f19841661205786611e33565b60005b8281101561207f5784890151825560018201915060208501945060208101905061205a565b8683101561209c5784890151612098601f891682611fa5565b8355505b6001600288020188555050505b505050505050565b7f6964206973206f7574206f6620626f756e647300000000000000000000000000600082015250565b60006120e760138361177d565b91506120f2826120b1565b602082019050919050565b60006020820190508181036000830152612116816120da565b9050919050565b600061212882611896565b915061213383611896565b925082820190508082111561214b5761214a611dbc565b5b92915050565b7f496e73756666696369656e742062616c616e6365000000000000000000000000600082015250565b600061218760148361177d565b915061219282612151565b602082019050919050565b600060208201905081810360008301526121b68161217a565b9050919050565b6000819050919050565b6121d86121d382611896565b6121bd565b82525050565b60008160601b9050919050565b60006121f6826121de565b9050919050565b6000612208826121eb565b9050919050565b61222061221b82611858565b6121fd565b82525050565b600061223282856121c7565b602082019150612242828461220f565b6014820191508190509392505050565b7f4e487b7100000000000000000000000000000000000000000000000000000000600052601260045260246000fd5b600061228c82611896565b915061229783611896565b9250826122a7576122a6612252565b5b828206905092915050565b7f4e487b7100000000000000000000000000000000000000000000000000000000600052603260045260246000fd5b60006122ec82611896565b91506122f783611896565b925082820261230581611896565b9150828204841483151761231c5761231b611dbc565b5b5092915050565b7f45524332303a2064656372656173656420616c6c6f77616e63652062656c6f7760008201527f207a65726f000000000000000000000000000000000000000000000000000000602082015250565b600061237f60258361177d565b915061238a82612323565b604082019050919050565b600060208201905081810360008301526123ae81612372565b9050919050565b7f45524332303a20617070726f76652066726f6d20746865207a65726f2061646460008201527f7265737300000000000000000000000000000000000000000000000000000000602082015250565b600061241160248361177d565b915061241c826123b5565b604082019050919050565b6000602082019050818103600083015261244081612404565b9050919050565b7f45524332303a20617070726f766520746f20746865207a65726f20616464726560008201527f7373000000000000000000000000000000000000000000000000000000000000602082015250565b60006124a360228361177d565b91506124ae82612447565b604082019050919050565b600060208201905081810360008301526124d281612496565b9050919050565b7f45524332303a206d696e7420746f20746865207a65726f206164647265737300600082015250565b600061250f601f8361177d565b915061251a826124d9565b602082019050919050565b6000602082019050818103600083015261253e81612502565b9050919050565b7f45524332303a20696e73756666696369656e7420616c6c6f77616e6365000000600082015250565b600061257b601d8361177d565b915061258682612545565b602082019050919050565b600060208201905081810360008301526125aa8161256e565b9050919050565b7f45524332303a207472616e736665722066726f6d20746865207a65726f20616460008201527f6472657373000000000000000000000000000000000000000000000000000000602082015250565b600061260d60258361177d565b9150612618826125b1565b604082019050919050565b6000602082019050818103600083015261263c81612600565b9050919050565b7f45524332303a207472616e7366657220746f20746865207a65726f206164647260008201527f6573730000000000000000000000000000000000000000000000000000000000602082015250565b600061269f60238361177d565b91506126aa82612643565b604082019050919050565b600060208201905081810360008301526126ce81612692565b9050919050565b7f45524332303a207472616e7366657220616d6f756e742065786365656473206260008201527f616c616e63650000000000000000000000000000000000000000000000000000602082015250565b600061273160268361177d565b915061273c826126d5565b604082019050919050565b6000602082019050818103600083015261276081612724565b9050919050565b7f45524332303a206275726e2066726f6d20746865207a65726f2061646472657360008201527f7300000000000000000000000000000000000000000000000000000000000000602082015250565b60006127c360218361177d565b91506127ce82612767565b604082019050919050565b600060208201905081810360008301526127f2816127b6565b9050919050565b7f45524332303a206275726e20616d6f756e7420657863656564732062616c616e60008201527f6365000000000000000000000000000000000000000000000000000000000000602082015250565b600061285560228361177d565b9150612860826127f9565b604082019050919050565b6000602082019050818103600083015261288481612848565b905091905056fea26469706673582212202aec4ba17fd0dd4cd728aacf80b97e2732865187f9c72fc0faf1a1947dbf14a164736f6c63430008120033",
  "linkReferences": {},
  "deployedLinkReferences": {}
}